:020000040800F2
:10000000C8A300205502000849250008F51D000876
:1000100045250008CD0D00089D4B0008000000009C
:100020000000000000000000000000009D0100082A
:10003000B915000800000000F1010008D5420008D1
:100040006F0200086F0200086F0200086F020008CC
:100050006F0200086F0200086F0200086F020008BC
:100060006F0200086F0200086F0200086F020008AC
:100070006F0200086F0200086F0200086F0200089C
:100080006F0200086F0200086F0200086F0200088C
:100090006F0200086F0200086F0200086F0200087C
:1000A0006F0200086F0200086F0200086F0200086C
:1000B0006F0200086F0200086F0200086F0200085C
:1000C0006F0200086F0200086F0200086F0200084C
:1000D0006F0200086F0200086F0200086F0200083C
:1000E0006F0200086F0200086F0200086F0200082C
:1000F0006F0200086F0200086F0200086F0200081C
:100100006F020008652B00086F0200086F020008EC
:100110006F0200086F0200086F0200086F020008FB
:100120006F0200086F0200086F0200081512000835
:100130006F0200086F0200086F0200086F020008DB
:100140006F0200086F0200086F0200086F020008CB
:100150003D1200086F0200086F0200086F020008DD
:100160006F0200086F0200086F0200086F020008AB
:100170006F0200086F0200086F0200086F0200089B
:100180006F0200086F020008DFF80CD000F046FB99
:10019000004800475D820008C8A300202A4B196868
:1001A0000868B0E8F04F80F30988BFF36F8F4FF015
:1001B000000080F3118870470000000006480068C6
:1001C000006880F3088862B661B6BFF34F8FBFF353
:1001D0006F8F00DF00BF00BF08ED00E0DFF80C000C
:1001E000016841F470010160704700BF88ED00E0D4
:1001F000EFF30980BFF36F8F134B1A681EF0100FD7
:1002000008BF20ED108A20E9F04F106008B44FF0CD
:10021000300080F31188BFF34F8FBFF36F8F09F069
:10022000D1FC4FF0000080F3118808BC1968086801
:10023000B0E8F04F1EF0100F08BFB0EC108A80F34A
:100240000988BFF36F8F704730000020EFF30580FF
:10025000704700000648804706480047FEE7FEE773
:10026000FEE7FEE7FEE7FEE7FEE7FEE7FEE7FEE766
:10027000E5420008890100082DE9F05F05460020ED
:1002800092469B4688460646814640241BE0284607
:1002900041464746224600F031F953465A46C01AB5
:1002A000914110D311461846224600F018F92D1A34
:1002B00067EB01084F4622460120002100F00FF9AC
:1002C00017EB00094E41201EA4F10104DFDC484673
:1002D00031462A464346BDE8F09F40EA01039B07AA
:1002E00003D009E008C9121F08C0042AFAD203E0AB
:1002F00011F8013B00F8013B521EF9D27047D2B20F
:1003000001E000F8012B491EFBD270470022F6E7FE
:1003100010B513460A4604461946FFF7F0FF20467B
:1003200010BD10B5002200E0521C835C8C5CA3421F
:1003300001D1002BF8D1D8B2E1B2401A10BD2DE99D
:10034000FE4F804681EA0300C00F0C46009021F06A
:10035000004123F00045B8EB0200A94105D2404618
:10036000214690461C460B46024623F000401043AF
:1003700047D0270DC7F30A00C3F30A510290401A71
:10038000019040286BDAC3F3130040F4801B0098FF
:10039000924620B10023D2EB030A63EB0B0B0198CA
:1003A0005946C0F14002504600F099F806460D4605
:1003B00050465946019A00F0B1F810EB080061412F
:1003C000002487EA115284EAE7731A4340D0009A66
:1003D00062B3019A012A4FEA075215DC001B61EB58
:1003E00002014FF0004202EA0752CDE90042001C30
:1003F00041F5801132462B4600F0B1F803B0BDE85C
:10040000F08F40462146F9E7001B61EB0201001C1A
:1004100041F5801300185B412018A2F5001747EB47
:10042000030140EAD570B6196D4111E06D084FEA3D
:10043000360645EAC0754FEA0752001B61EB020120
:10044000001C41F5801149084FEA30000019514164
:1004500032462B4603B0BDE8F04F00F071B800986B
:10046000012240000023D0EB020263EBE07300980E
:1004700021464FEAE074B8EB000061EB0401E9E7C4
:1004800083F000435BE781F0004158E700F0004251
:1004900030F000400AD0C10D01F56071C0F31600C4
:1004A00042EA0151C208400711437047002001464B
:1004B000704730B50B46014600202022012409E098
:1004C00021FA02F59D4205D303FA02F5491B04FA0D
:1004D00002F52844151EA2F10102F1DC30BD202AEC
:1004E00004DB203A00FA02F1002070479140C2F18B
:1004F000200320FA03F3194390407047202A04DBBD
:10050000203A21FA02F00021704721FA02F3D0408C
:10051000C2F120029140084319467047202A06DBA9
:10052000CB17203A41FA02F043EAE07306E041FAC1
:1005300002F3D040C2F120029140084319467047AF
:1005400010B5141E73F1000408DA401C41F10001DB
:1005500092185B411A4301D120F0010010BD2DE932
:10056000F04D92469B4611B1B1FA81F202E0B0FA29
:1005700080F220329046FFF7B2FF04460F4640EA71
:100580000A0041EA0B0153465A46084313D011466C
:1005900053EA010019D0C8F140025046FFF7AEFF00
:1005A00005460E46504659464246FFF798FF084317
:1005B00005D0012004E020463946BDE8F08D00203A
:1005C000054346EAE0762C4337430A986305E40A7C
:1005D000A0EB08000022FD0A44EA47540A3002D585
:1005E00000200146E9E7010510196941DDE90845E8
:1005F00000196941BDE8F04DA2E72DE9FE4F81EAFF
:10060000030404F0004421F0004100944FF0000B7B
:1006100023F0004350EA01045ED052EA03045BD0A9
:10062000C3F30A54C1F30A552C44A4F2F3340194E1
:10063000A0FB0254C1F3130141F48011C3F313036F
:1006400043F4801301FB024400FB034E840A970A23
:1006500044EA815447EA8357A4FB076802958D0A50
:1006600005FB07854FEA932C04FB0C542705029DDC
:100670004FEA065847EA1637B5EB08056EEB070C4C
:10068000870E920E47EA811742EA8312A7FB020106
:10069000B6EB0B0164EB00042B0D43EA0C335E1840
:1006A00044EB1C50DA465146E7FB0201C5F3130444
:1006B0004FEA0B3343EA14534FEA0432019C43EAF6
:1006C0000603A4F10C040294009CCDE900B4FFF7EA
:1006D00046FF03B0BDE8F08F00200146F9E72DE9A1
:1006E000F04D81EA030404F0004B21F0004514466C
:1006F0004FF0000A23F0004150EA050220D054EAEE
:1007000001021DD0C5F30A570246C5F31303C1F316
:100710001300C1F30A5640F4801543F48013A7EB8D
:100720000608101BD64608F2FD3873EB050002D30D
:1007300008F1010801E092185B41B8F1000F03DAFB
:1007400000200146BDE8F08D00204FF480110646E0
:1007500084460EE0171B73EB050705D3121B63EBF2
:10076000050306434CEA010C49084FEA3000921891
:100770005B4150EA0107EDD152EA030012D082EA50
:10078000040083EA0501084305D0101BAB4106D2E3
:100790000122002306E000224FF0004302E06FF048
:1007A000010253101AEB06004CEB085110EB0A0043
:1007B00041EB0B01BDE8F04DFFF7C2BEC1F30A5299
:1007C000C1F3130140F2FF3341F480119A4202DA7F
:1007D00000200146704740F233439A42A2F233426E
:1007E00002DC5242FFF78ABEFFF779BE30B5041E25
:1007F00071F1000404DB4FF00044404264EB01015E
:10080000141E73F1000405DB1C464FF000435242F6
:1008100063EB0403994208BF904230BD064C074D7C
:1008200006E0E06840F0010394E8070098471034C0
:10083000AC42F6D3FFF7ACFCFCB100081CB20008D8
:1008400070B58C1810F8015B15F0070301D110F892
:10085000013B2A1106D110F8012B03E010F8016BBF
:1008600001F8016B5B1EF9D12B0705D40023521E42
:100870000DD401F8013BFAE710F8013BCB1A921CAA
:1008800003E013F8015B01F8015B521EF9D5A142A8
:10089000D8D3002070BDCA430260704721B182687E
:1008A00042F00102826003E0826822F0010282606D
:1008B000704700000021084A1168084A1140D0E939
:1008C00000231A4383681A43C3681A431143044A36
:1008D000C2F804137047000004230140E030FCFF1D
:1008E000002001400146C86C80B2704702460020DB
:1008F00013680B400BB1012000E00020704700009E
:1009000030B50246002000235068104C20400D797D
:100910000C6844EA05242043506090680C4C204049
:10092000D1E903542C438D682C434D7944EA4504A6
:1009300020439060D06A20F470000C7D641EE4B205
:10094000234340EA0350D06230BD0000FFFEFFFCAD
:10095000FDF7FFC0F0B504460D4600200021092D2B
:1009600011DDE068A5F10A0606EB4607072606FA40
:1009700007F18843A5F10A0606EB460603FA06F1DD
:100980000843E0600CE0206905EB4507072606FAFE
:1009900007F1884305EB450603FA06F10843206199
:1009A000072A0FDA606B561E06EB86071F2606FA2B
:1009B00007F18843561E06EB860605FA06F1084342
:1009C000606322E00D2A0FDA206BD61F06EB860744
:1009D0001F2606FA07F18843D61F06EB860605FA9E
:1009E00006F10843206310E0E06AA2F10D0606EB71
:1009F00086071F2606FA07F18843A2F10D0606EBCB
:100A0000860605FA06F10843E062F0BD816841F010
:100A100080418160704700210160017141718160F6
:100A2000C1600161012101757047F8B505460024D8
:100A30000CE00DEB040329466A1CD5B201225720B5
:100A400003F080FB064600BF601CC4B2042CF0DB40
:100A50009DED000AF8BD000030B52DED028B81B090
:100A600000200090002420E0214613A004F098F814
:100A700000250AE00DEB05032146621CD4B20122D9
:100A8000572003F05FFB681CC5B2042DF2DB9DED1F
:100A9000000A10EE101A0846FFF7F8FC41EC180B9C
:100AA00053EC182B06A004F07BF8302CDCDB01B0F3
:100AB000BDEC028B30BD00003078257809000000C5
:100AC00025660D0A00000000F1B52DED020B04466D
:100AD0006E4600250AE03346761C2146621CD4B2DD
:100AE0000122572003F057FB681CC5B2042DF2DB2E
:100AF000FEBD000010B500F0EFFF08F0BFFB01F0F5
:100B0000EBFE01F05BFC00F053FB03F0F7FF00F09D
:100B10000DF903220021012009F086F91649086029
:100B20000846006810B115A004F03AF8012009F059
:100B300069F91D4908600846006810B11BA004F05F
:100B40002FF8012009F05EF9224908600846006884
:100B500010B121A004F024F82948006808F0A6FF8D
:100B600007F08EFC4020274908802748006808F0DD
:100B7000ADFD08F0C7FB10BDB80000203C44454265
:100B800055473E426C7565746F6F74685265636556
:100B900069766553656D70686F7265206372656113
:100BA000746564210D0A0A00B00000203C444542EF
:100BB00055473E55534152545F4D757853656D5FAF
:100BC00048616E646C652063726561746564210DB3
:100BD0000A0A0000B40000203C44454255473E4903
:100BE00032435F4D757853656D5F48616E646C6527
:100BF0002063726561746564210D0A0A00000000BB
:100C0000BC0000201A040240AC0000201CB50121E9
:100C1000022001F023FD032000908DF80400002045
:100C20008DF807006946024801F066F81CBD000017
:100C30000004024000B58BB00121080201F03EFD26
:100C400000200190029003904FF47060049001A87E
:100C5000FFF730FE05A8FFF7DEFE002005908DF8B7
:100C6000180001208DF819000020079008900990C5
:100C700001208DF8280005A90648FFF741FE022152
:100C80000448FFF708FE00210248FFF707FE0BB0FB
:100C900000BD00000020014010B505F067F90E48C6
:100CA00005F042F901F014FC01F028FC40200B494A
:100CB00008804FF4407001F093FC05F0B5F801F0A6
:100CC000FFF906F023FE06F02DFF07F023FB06F0E8
:100CD00005FC04F02DFC10BD40420F00180402403A
:100CE0001FB5B7EE000A8DED020A002000900190BA
:100CF00000BF16E0C8210B4808F076FC02A903A843
:100D000004F0B8FB9DED030A8DED000A9DED020A8B
:100D10008DED010A00231A4669460348006809F070
:100D200005FAE7E7E4000020E00000201CB50124FC
:100D30000E48012100238022CDE900100CA10F48AC
:100D400009F0B0FB0446012C02D10DA003F028FFEE
:100D500000220821022009F067F8134908600846BC
:100D6000006810B111A003F01BFF1CBDDC000020C7
:100D7000426174745F5461736B000000E10C000801
:100D80003C44454255473E4372656174652042418B
:100D900054545F426C696E6B5F5461736B204F4BB0
:100DA000210D0A0A00000000E00000203C444542FA
:100DB00055473E424154545F5175657565206372D5
:100DC0006561746564210D0A0A00000000BFFEE73A
:100DD00070B500254FF4803400E0641E24B18020FB
:100DE00001F094FE0028F8D014B90325284670BD00
:100DF00040F2FF5001F046FE2846F8E72DE9F041A9
:100E0000064600274848056801E04748056805F0A0
:100E100045000028F9D005F0040030B10327042074
:100E200001F030FE3846BDE8F08105F0010028B140
:100E30000127012001F026FE3846F4E701F060FEAC
:100E4000B04202D010273846EDE740F2FF5001F0E3
:100E500019FE002001F07AFE04463448204008B90B
:100E60003846E0E704F0004008B11C20DBE704F05E
:100E7000804008B10920D6E704F0005008B10A20EC
:100E8000D1E704F0805008B10B20CCE704F00060FB
:100E900008B10C20C7E704F0806008B10D20C2E75C
:100EA00004F0807008B10E20BDE704F4000008B122
:100EB0000F20B8E704F4800008B11020B3E704F471
:100EC000001008B11120AEE704F4801008B1122020
:100ED000A9E704F4002008B11320A4E704F480205B
:100EE00008B114209FE704F4003008B115209AE7F8
:100EF00004F4803008B1162095E704F4004008B1EE
:100F0000172090E704F4804008B118208BE704F420
:100F1000005008B1192086E704F0080008B11A2033
:100F200081E738467FE70000342C014008E0FFFDF0
:100F300070B500251048046801E00F48046804F00B
:100F400045000028F9D004F0040028B1032504204E
:100F500001F098FD284670BD04F0010028B101257C
:100F6000012001F08FFD2846F5E740F2FF5001F027
:100F700089FD2846EFE70000342C014070B50025BC
:100F80000B48046801E00A48046804F045000028A2
:100F9000F9D004F0040028B10325042001F072FD0B
:100FA000284670BD40F2FF5001F06CFD2846F8E77E
:100FB000342C01402DE9F04106460F464FF0000861
:100FC0002248056801E02148056805F04500002831
:100FD000F9D005F0040038B14FF00308042001F007
:100FE00051FD4046BDE8F08105F0010030B14FF001
:100FF0000108012001F046FD4046F3E701F080FDC5
:10100000B04203D04FF010084046EBE740F2FF50EB
:1010100001F038FD002001F099FD044604F4604021
:1010200018B9200C38804046DCE704F4005008B1C1
:101030001320D7E704F4804008B11020D2E704F46D
:10104000004008B10F20CDE74046CBE7342C0140EB
:1010500070B500264FF480350F48046802E06D1E1D
:101060000D48046804F0450008B9002DF7D115B10A
:1010700004F0040028B10326042001F003FD3046EB
:1010800070BD04F0400028B10026402001F0FAFCB9
:101090003046F5E73046F3E7342C01402DED068B62
:1010A00088B0012400200690079018216846FFF7B9
:1010B0002DF900BF9FED380AB0EE408A00BF00BF97
:1010C0009FED350AF0EE408A00BF00BF9FED320A67
:1010D000B0EE409A9FED300AF0EE409A9FED2E0A56
:1010E000B0EE40AA9FED2C0AF0EE40AA002500BF0A
:1010F000002600BF00BF4EE00521284808F074FA22
:1011000000231A4606A92648006808F0CBFE0446CC
:10111000012C05D1BDF9185000BFBDF91C6000BFFE
:1011200000231A4669461F48006808F0BBFE0446C3
:10113000012C0BD100BF9DED010AB0EE408A00BF2B
:1011400000BF9DED040AF0EE408A00BF2A4671B24E
:10115000B0EE480A144807F047FAB0EE409A2A4623
:10116000BDEEC90A10EE100A41B2B0EE680A0F488F
:1011700007F03AFAB0EE40AABDEEEA0A10EE103AD5
:10118000BDEECA0A10EE102ABDEEE90A10EE101AE2
:10119000284607F0A1F8AFE700000000C0000020DB
:1011A000F8000020C8000020949F00204C9F0020E1
:1011B0001CB501240848042100230A02CDE90010CF
:1011C00006A10A4809F06EF90446012C02D108A0D4
:1011D00003F0E6FC1CBD0000BC000020436F6E74F1
:1011E000726F6C5F5461736B000000009D1000080B
:1011F0003C44454255473E43726561746520436FE8
:101200006E74726F6C5F5461736B20204F4B210DB5
:101210000A0A000010B500BF3021EFF3118081F3FE
:101220001188BFF34F8FBFF36F8F00BF044602F0EA
:10123000A5F9204680F3118800BF10BD38B500BF66
:101240003021EFF3118081F31188BFF34F8FBFF38B
:101250006F8F00BF04461449144800F02FF9F0B115
:101260000021124800F05CF82021104800F0A2F99B
:1012700001210E4800F054F80B490C4800F036F8F4
:1012800069460B48006809F037F8009838B14FF00C
:10129000805008490860BFF34F8FBFF36F8F00BFC6
:1012A00084F3118800BF38BD0088002088640240A4
:1012B000B800002004ED00E00246094B9A4201D23A
:1012C000084801E00648103801F000531BB1064BF6
:1012D0000B40C36002E0044B0B408360704700008A
:1012E00010640240006002407D0F7D0F0246094BF2
:1012F0009A4201D2084801E00648103801F0005334
:101300001BB1064B0B40C36002E0044B0B408360F3
:101310007047000010640240006002407D0F7D0FA6
:1013200021B1026842F00102026003E0026822F08B
:101330000102026070470000016821F001010160B4
:101340000021016041608160C16001612121416132
:101350004A49884204D13D21484A103A91608CE0C4
:1013600046491831884205D14FF47461434A103A16
:10137000916082E041493031884205D14FF47411C7
:101380003E4A103A916078E03C494831884205D1A4
:101390004FF07461394A103A91606EE0374960311C
:1013A000884204D13649354A103AD16065E0334964
:1013B0007831884204D13349304A103AD1605CE038
:1013C0002E499031884204D12F492C4A103AD160DD
:1013D00053E02A49A831884205D14FF03D51274AB0
:1013E000103AD16049E02949884204D13D21274A79
:1013F000083A116041E025491831884205D14FF47F
:101400007461224A083A116037E02049303188423D
:1014100005D14FF474111D4A083A11602DE01B49A3
:101420004831884205D14FF07461184A083A11607A
:1014300023E016496031884204D11149134A121F32
:1014400011601AE011497831884204D10D490F4AE0
:10145000121F116011E00D499031884204D10A49F0
:101460000A4A121F116008E00849A831884204D1D5
:101470004FF03D51054A121F116070471060024045
:101480003D000020400F002000003D20106402407D
:1014900021B1026842F02002026003E0026822F0FB
:1014A000200202607047014600200A6802F0010233
:1014B0000AB1012000E000207047000070B502462C
:1014C000002000240025124EB24201D2114B01E04F
:1014D0000F4B103B104E0E4036B11E2606EAD124AB
:1014E000166806EA040502E0566906F0800501F078
:1014F00000560EB15C6800E01C68084E344004EAF7
:10150000010616B10DB1012000E0002070BD000001
:1015100010640240006002403C0F3C0F7D0F7D0FC5
:1015200010B501F080034BB122B1436943F0800351
:10153000436103E0436923F08003436180290BD0BA
:101540002AB1036801F01E042343036004E003682A
:1015500001F01E04A343036010BD000010B500227B
:101560000268134B1A40CC680B6823434C69234331
:101570008C692343CC6923430C6A23434C6A23437D
:101580008C6A23434C6B23438C6B23431A430260C6
:10159000426922F00702D1E90B3423431A43426126
:1015A0000B6943604B6883608B68C36010BD0000AB
:1015B0003F801CF04160704770470000014908609F
:1015C000704700000C3C02400548006800F00040F5
:1015D00028B1044802490C39086003480860704784
:1015E000103C024023016745AB89EFCD00B5B0EE5A
:1015F000404AB7EE000AF0EE404AF0EE442AF5EE1B
:10160000C02AF1EE10FA07D2B1EE620AF0EE402ADB
:10161000B1EE640AF0EE404AB6EE000AF4EEC02ADB
:10162000F1EE10FA1FDD0122B7EE000AF4EEC02A37
:10163000F1EE10FA04DDDFED343AB0EE630A00BDDE
:10164000B7EE000A30EE620AF6EE000A20EE203A0B
:10165000B0EE430A00F012FAF8EE000A20EE200A7B
:10166000F0EE402A17E000229FED280AF4EEC02A8F
:10167000F1EE10FA0DD2F0EE623AF5EEC04AF1EE5C
:1016800010FA03D2B1EE630AF0EE403AB0EE630A0C
:10169000D5E722EEA23A9FED1E0ADFED1E0A00EE0C
:1016A000830ADFED1D0A40EE030A20EE835A9FED08
:1016B0001B0A73EE000A9FED1A0A00EE830ADFEDA3
:1016C000190AF0EE605A40EE035A85EE250AF0EE54
:1016D000403AB0EE620A03EEA20AF0EE403A012A66
:1016E00005D19FED110A33EE800AF0EE403AF5EE97
:1016F000C04AF1EE10FA03D2B1EE630AF0EE403ABE
:10170000B0EE630A9BE7000000000000F304B53967
:10171000E0F939403F3118BF201B30C0855725C143
:10172000F7EAC641581484C1DB0FC93FF0EE402AE6
:10173000B0EE603AB5EEC03AF1EE10FA19D1F5EE1E
:10174000C02AF1EE10FA02D19FED590A70479FEDC1
:10175000590AF5EEC02AF1EE10FA00DDF6E7F5EED3
:10176000C02AF1EE10FA04D2F1EE403AB0EE630A6C
:10177000ECE70020F0EE621AB0EE432AF5EEC01A54
:10178000F1EE10FA03D2F1EE613AF0EE631AB5EE23
:10179000C02AF1EE10FA03D2F1EE423AB0EE632A1B
:1017A000F4EEC21AF1EE10FA06DDF0EE420AB0EEE7
:1017B000612AF0EE601A0220C1EE823AF0EE630A6E
:1017C000DFED3D3AF4EEE30AF1EE10FA14DD9FEDA1
:1017D0003B4AF7EE003A50EE843A73EEA03AF0EE50
:1017E000631ADFED373A70EEA33AB0EE632AC1EE2A
:1017F000823AF0EE630A401CB0EE601AB5EEC01AF1
:10180000F1EE10FA03D2F1EE413AB0EE631ADFEDD9
:101810002D3AB4EEE31AF1EE10FA02D2B0EE600AFD
:1018200021E060EEA03AB0EE631ADFED273A9FEDBB
:10183000274A44EE013A63EE813AF0EE631ADFED97
:10184000243A31EE234ADFED233A44EE013AB0EE7A
:10185000632AC1EE823AB0EE630AF0EE603A40EEDF
:10186000203AB0EE630A012803DDF1EE403AB0EE13
:10187000630A194901EB8001D1ED003A73EE803A19
:10188000B0EE630AB5EEC03AF1EE10FA05D2DFED24
:10189000133A73EEC03AB0EE630AF5EEC02AF1EEE9
:1018A00010FA03D2F1EE403AB0EE630A00BF4DE702
:1018B00000000000DB0FC93FA330893EAF673B3F0C
:1018C000D7B3DD3FF304B539A854B8BFAE5338BF22
:1018D0003C1298407E3F8A40C0B10008DB0F49406F
:1018E00070B5F0EE404A03460C46DFED605A64EEF8
:1018F000A55AB0EE652AFDEEC25A15EE902AB5EE55
:10190000C02AF1EE10FA00D2521E05EE902AF8EE2F
:10191000E55A72EE655AB0EE652ADFED555A22EEB1
:10192000254AFCEEC45A15EE905AC5F3080000F1A2
:101930008005C5F3080105EE900AF8EE655A34EE0D
:10194000650A4C4D05EB8105D5ED005AF0EE652A90
:10195000484E4D1C06EB8505D5ED005AB0EE655A94
:10196000354605EB8005D5ED005AF1EE655AB0EE2F
:10197000651A451C06EB8505D5ED005AF1EE655A52
:10198000B0EE653ADFED3C0A75EE625AF0EE653A6C
:1019900071EE035A65EEA05AB0EE006A46EE635A45
:1019A000F0EE651AF0EE085A63EEA55AF0EE006A02
:1019B000B0EE436A06EE816A46EE605A40EE215A66
:1019C000F0EE651A60EE215A41EE205AF0EE651AEB
:1019D000F0EE625A40EE215AC4ED005A354605EB4E
:1019E0008005D5ED005AF0EE652A451C06EB85050D
:1019F000D5ED005AB0EE655A354605EB8105D5EDBB
:101A0000005AB0EE651A4D1C06EB8505D5ED005A5F
:101A1000B0EE653A75EE625AF0EE653A71EE035A31
:101A200065EEA05AB0EE006A46EE635AF0EE651A13
:101A3000F0EE085A63EEA55AF0EE006AB0EE436A83
:101A400006EE816A46EE605A40EE215AF0EE651AC3
:101A500060EE215A41EE205AF0EE651AF0EE625A1D
:101A600040EE215AC3ED005A70BD000083F9223EBA
:101A70000000004450A90008DB0F493C00B5B0EE5F
:101A8000402AB0EE420A00F003F820EE020A00BD40
:101A900008B5F0EE400ACDED000A0C490098A1EB24
:101AA000500000909FED0A0A20EE800A9DED001A7A
:101AB00020EE011ADDED001A9FED060A01EE610A23
:101AC0009DED001A20EE010A08BD000012141F5FF0
:101AD00012D3363FFF51D83F10B501221BA11C483D
:101AE00005F0CAF91B490870084600780D281AD17C
:101AF0000022114615A004F07DFE16490870084624
:101B0000007870B9012211A1002005F0B5F9114942
:101B1000087001220DA10E4805F0AEF90D490870BC
:101B200012E000BFFEE70B48007808B100BFFEE7F7
:101B30000A2209A10A4805F0DFF90649087008469B
:101B4000007808B100BFFEE710BD0000303A000089
:101B500060010020240000205241572E584C5300B1
:101B6000941100202DE9FC4107460D460026002473
:101B700000200090019008205B4908601020486018
:101B8000402088600020C8604FF4806008610846EB
:101B900001F02AF81020FFF731F9044614B120466D
:101BA000BDE8FC815148008800044F490860372097
:101BB0004860402088600020C8604FF48060086161
:101BC000084601F011F83720FFF718F904460CB168
:101BD0002046E5E74FF0FF3045490860082048609F
:101BE000302088600220C860002008610120486120
:101BF000084600F05FFF00203B4908603320486042
:101C0000402088600020C8604FF48060086108466A
:101C100000F0EAFF3320FFF7F1F804460CB120464C
:101C2000BEE709E04FF4001000F070FF20B100F0B3
:101C3000D5FF4DF82600761C2E48006840F22A6138
:101C400008400028EED0082000F060FF28B10820EE
:101C500000F018FF04242046A2E7022000F056FFFF
:101C600028B1022000F00EFF0224204698E7202031
:101C700000F04CFF28B1202000F004FF062420468D
:101C80008EE74FF4007000F041FF30B14FF4007068
:101C900000F0F8FE0724204682E740F2FF5000F0F3
:101CA000F1FE00980006009901F47F4140EA01200E
:101CB000009901F47F0140EA1120009940EA116087
:101CC000686001980006019901F47F4140EA012013
:101CD000019901F47F0140EA1120019940EA116065
:101CE000286020465CE70000909D002094000020C2
:101CF000A49D0020342C0140F0B50A4600210023A9
:101D0000002400BF3DE0012505FA01F3156805EA4E
:101D100003049C4234D105684F000326BE40B543FE
:101D2000056015794E00B5400668354305601579A4
:101D3000012D02D01579022D16D185684F0003269A
:101D4000BE40B543856055794E00B5408668354341
:101D50008560456801268E40B543456045689679A3
:101D60008E40B6B235434560C5684F000326BE407D
:101D7000B543C560D5794E00B540C6683543C560EA
:101D8000491C1029BFD3F0BDF0B5002300244D0736
:101D9000ED0E02FA05F3CE1000F1200555F826509D
:101DA0004E07F70E0F26BE40B543CF1000F12006B8
:101DB00046F82750CE1000F1200555F8265045EA88
:101DC0000304CE1000F1200545F82640F0BD024680
:101DD000002013690B400BB1012000E00020704788
:101DE00041837047018370470148008870470000B5
:101DF000A800002006F044FB0CE0402006490880C3
:101E0000064804F091F840200349891C08800348E3
:101E100004F08AF8F1E700001804024040420F0085
:101E200021B1028842F48062028004E002884FF609
:101E3000FF331A4002807047002221F07F42D343D3
:101E40008382704721B1028842F00102028004E0DF
:101E500002884FF6FE731A400280704710B50446A0
:101E60001348844209D10121480500F017FC0021E4
:101E70004FF4001000F012FC18E00E48844209D123
:101E80000121880500F00AFC00214FF4800000F0D9
:101E900005FC0BE00848844208D10121C80500F088
:101EA000FDFB00214FF4000000F0F8FB10BD000026
:101EB0000054004000580040005C004021B10288FE
:101EC00042F48072028004E002884FF6FF631A40F9
:101ED0000280704721B1028842F40072028004E05F
:101EE00002884FF6FF531A40028070470CB5024635
:101EF000002000230193009300920B0F019321F027
:101F00007F41019B1BB1009B1433009303E0090C3C
:101F1000009B18330093009B1B680B400BB1012002
:101F200000E000200CBD00002DE9FF4704460D46EF
:101F30000026B1460427DFF8CC80A6884FF6C07093
:101F40000640684600F0DAFBDDF808802E48B8FB52
:101F5000F0F01FFA80F946EA0906A68020884FF6BD
:101F6000FE710840208000262849286888420CD845
:101F700028684000B8FBF0F087B2042F00DA04278D
:101F80003E4309F10100208427E0E8884BF6FF7109
:101F9000884206D1286800EB4000B8FBF0F087B219
:101FA00009E0286800EBC00101EB0010B8FBF0F07D
:101FB00087B247F48047C7F30B0008B947F0010721
:101FC00047F4004006434FF4967009FB00F04FF4CD
:101FD0007A7190FBF1F0401C2084A683208840F0A9
:101FE0000100208026884FF6F5300640A8886989D0
:101FF000084306432680A889298908432081BDE833
:10200000FF87000000127A0040420F00A086010006
:1020100008B5024600200090009200980844009005
:102020000098008808BD0146088AC0B2704712B106
:1020300041F0010101E001F0FE01018270470182DF
:10204000704721B1028842F40042028003E0028816
:10205000C2F30E02028070471FB5044601211648E4
:10206000FFF738FF01211448FFF7EBFF002112486A
:10207000FFF7E7FF1048FFF7F1FE0020ADF804007E
:102080004BF6FF70ADF806000020ADF808004FF4E5
:102090008060ADF80A000001ADF80C000748009020
:1020A00001210548FFF7CEFE69460348FFF73CFFD4
:1020B000012004B010BD000000540040801A06004A
:1020C00000B587B00121480500F0D8FA01210220AF
:1020D00000F0C4FA4FF48070059002208DF81800CB
:1020E00003208DF8190001208DF81A0000208DF8CA
:1020F0001B00042208211C48FFF746FE05A91A48C8
:10210000FFF7FAFD4FF400700590042209211648EC
:10211000FFF73AFE05A91448FFF7EEFD1348FFF755
:102120009DFE0020ADF808004BF6FF70ADF80A00E8
:102130000020ADF80C004FF48060ADF80E000001F7
:10214000ADF810000A48019001210848FFF77AFE17
:102150004FF400310548FFF76FFE01A90348FFF770
:10216000E3FE07B000BD0000000402400054004040
:10217000801A0600AEB0302110A8FEF7C7F818216B
:102180000AA8FEF7C3F80020079008900990049071
:1021900005900690002400250026039000BF00BF94
:1021A00000BFF4E002217A4807F01EFA03F0FCFEBB
:1021B00028A805F045FC9DED2B0ADFED760A20EE00
:1021C000200A8DED2B0A9DED2C0ADFED720A20EE20
:1021D000200A8DED2C0A9DED2D0ADFED6E0A20EE12
:1021E000200A8DED2D0A22A928A803F00BFD1CA8BA
:1021F0000290DDE92601CDE9000122A80FC805F013
:10220000B1FD1FA80290DDE92601CDE9000122A859
:102210000FC805F0D3FD00235A1E19465E4800681A
:1022200007F040FE012809D11FA805F085FA002318
:102230001A4619465848006807F078FF9DED220AB3
:102240008DED100A9DED230A8DED110A9DED240AF6
:102250008DED120A9DED250A8DED130A9DED260ADE
:102260008DED140A9DED270A8DED150A9DED040AEA
:102270008DED160A9DED050A8DED170A9DED060AF6
:102280008DED180A9DED200A8DED190A9DED1F0AAE
:102290008DED1A0A9DED210A8DED1B0A00231A46C9
:1022A00010A93E48006807F041FF9DED1F0A8DED23
:1022B0000A0A9DED200A8DED0B0A9DED210A8DED98
:1022C0000C0A9DED250A8DED0D0A9DED260A8DED7A
:1022D0000E0A9DED270A8DED0F0A9DED0A0ADFED2E
:1022E000300AB4EEE00AF1EE10FA1ADC9DED0A0AAB
:1022F000DFED2C0AB4EEE00AF1EE10FA11D39DEDF9
:102300000B0ADFED270AB4EEE00AF1EE10FA08DC62
:102310009DED0B0ADFED230AB4EEE00AF1EE10FAB0
:1023200005D22148006807F0C1FB06F0A9F8002398
:102330001A460AA91D48006807F0F8FE00231A464D
:1023400003A91B48006807F0ADFD00B10124012C72
:1023500018D1BDF80E00691C0D4600EBD072B1EB30
:10236000620F0FD100251348006880F0200011494A
:102370000860701C0646BDF80C10B0EB410F01D18F
:102380000026002403F0EAFD0B49086000BF09E7BE
:10239000D800002035FA8E3CB4000020C400002094
:1023A0000000F0420000F0C2BC000020C800002085
:1023B000CC00002014040240D40000201CB50124ED
:1023C0001B4805210023E202CDE9001019A11C4899
:1023D00008F068F80446012C02D11AA002F0E0FBD4
:1023E000002230210C2007F01FFD1E49086008461E
:1023F000006810B11CA002F0D3FB002218210620B7
:1024000007F012FD204908600846006810B11FA0BF
:1024100002F0C6FB00220421022007F005FD23493B
:1024200008600846006810B121A002F0B9FB1CBD8D
:10243000D0000020494D555F5461736B00000000CF
:10244000752100083C44454255473E43726561741E
:102450006520494D555F5461736B204F4B210D0A28
:102460000A000000C40000203C44454255473E4954
:102470004D555F517565756520637265617465645E
:10248000210D0A0A00000000C80000203C4445421B
:1024900055473E45756C65725F517565756520637E
:1024A000726561746564210D0A0A0000CC00002089
:1024B0003C44454255473E4C45445F517565756502
:1024C0002063726561746564210D0A0A00000000D2
:1024D0001CB50121042000F0C1F84FF480400090A9
:1024E00000208DF8040001208DF80700694602489D
:1024F000FFF702FC1CBD0000000802401CB50121D2
:10250000022000F0ABF80121022000F0A7F86020C3
:10251000009001208DF8040000208DF806000120B5
:102520008DF8070000208DF8050069460448FFF784
:10253000E3FB202002491A310880402008801CBD9E
:102540000004024000BFFEE7704708B544208DF844
:10255000000005208DF8010001208DF80300684679
:1025600000F002F808BD000070B5002100230F2222
:10257000C4781CB3174C246804F4E064C4F5E06428
:10258000C4F30721C1F10404E3B20A4144789C403A
:10259000E1B28478144021430C07210E0E4C0578DB
:1025A0006155047804F01F050124AC4005786D11D5
:1025B000AD0005F1E025C5F8004109E0047804F01C
:1025C0001F050124AC40054D0678761145F82640DC
:1025D00070BD00000CED00E000E400E080E100E0F0
:1025E00002490143024A1160704700000000FA05E9
:1025F0000CED00E01CB5012409480721002362020C
:10260000CDE9001007A10B4807F04CFF0446012C50
:1026100004D109A002F0C4FA07F0F2F900201CBDB1
:10262000AC0000204170705461736B43726561743B
:1026300065000000F50A00083C44454255473E53FA
:1026400074617274696E67204F53210D0A0A00008D
:1026500010B505F037FF03F01BFB10BD29B1064A8A
:1026600012680243044B1A6004E0034A1268824372
:10267000014B1A60704700003038024029B1064A09
:1026800012680243044B1A6004E0034A1268824352
:10269000014B1A60704700004038024029B1064AD9
:1026A00012680243044B1A6004E0034A1268824332
:1026B000014B1A60704700002038024029B1064AD9
:1026C00012680243044B1A6004E0034A1268824312
:1026D000014B1A60704700004438024029B1064A95
:1026E00012680243044B1A6004E0034A12688243F2
:1026F000014B1A607047000024380240F0B50021F9
:1027000000220024022500260223324F3F6807F0F2
:102710000C0121B1042905D0082937D105E02E4F3D
:10272000076036E02D4F076033E02A4F3F1F3F68B8
:10273000C7F38056274F3F1F3F6807F03F036EB136
:10274000264FB7FBF3F7DFF88CC0ACF1040CDCF8D4
:1027500000C0CCF3881C07FB0CF40CE01E4FB7FB49
:10276000F3F7DFF870C0ACF1040CDCF800C0CCF378
:10277000881C07FB0CF4174F3F1F3F68C7F3014746
:102780007F1C7D00B4FBF5F7076002E0124F076085
:1027900000BF00BF0F4F3F6807F0F0010909104F5D
:1027A0007A5C0768D74047600A4F3F6807F4E051FA
:1027B000890A0B4F7A5C4768D7408760054F3F68AE
:1027C00007F46041490B064F7A5C4768D740C76001
:1027D000F0BD0000083802400024F40000127A0026
:1027E000140000208AB00126002001900025002757
:1027F00000BF64E03221324806F0F6FE4FF400518B
:102800003048FFF7E4FA012801D1012500E0002556
:10281000BD420CD0012D04D12B48006807F06CF8A4
:1028200005E02948006807F041F905F029FE2F4628
:1028300000231A4619462548006807F033FB064670
:10284000012E3CD12022224902A8FDF746FD02A814
:1028500002F074FE04460CB3012C02D0022C2CD1E1
:102860000DE00120ADF804001E20ADF806000023A5
:102870001A4601A91748006807F058FC1EE002201C
:10288000ADF804004FF41670ADF8060000231A46A8
:1028900001A91048006807F049FC0FE00120ADF8DD
:1028A00004004FF41670ADF8060000231A4601A983
:1028B0000848006807F03AFC00E000BF00BF99E755
:1028C000FC00002000080240BC000020B8000020EE
:1028D000BC9D0020CC0000201CB501240E48032123
:1028E0000023A202CDE900100CA10E4807F0DAFD8A
:1028F0000446012C02D10CA002F052F9002208215A
:10290000042007F091FA104908600846006810B1E9
:102910000EA002F045F91CBDF400002052435F54A4
:1029200061736B00E52700083C44454255473E4330
:1029300072656174652052435F5461736B20204F50
:102940004B210D0A0A000000F80000203C444542DB
:1029500055473E52435F51756575652063726561E9
:10296000746564210D0A0A007CB505460024002028
:102970000090019000F0EAF800F0007010B10E2411
:1029800020467CBD3D49098888B26946FFF7EAF8D0
:1029900004460CB12046F4E7012D36D1019800F42D
:1029A000802000282ED03548008800043449086073
:1029B00037204860402088600020C860A802086175
:1029C000084600F011F93720FEF718FA04460CB15A
:1029D0002046D6E702202A490860062048604020A9
:1029E00088600020C8604FF480600861084600F0ED
:1029F000FBF80620FEF702FA04460CB12046C0E7B9
:102A00002046BEE725242046BBE7019800F480302D
:102A100078B31A48008800041949086037204860D4
:102A2000402088600020C8604FF48060086108463C
:102A300000F0DAF83720FEF7E1F904460CB1204641
:102A40009FE700200E49086006204860402088600B
:102A50000020C8604FF480600861084600F0C4F8A8
:102A60000620FEF7CBF904460CB1204689E7204644
:102A700087E7FFE72524204683E700009400002035
:102A8000909D00200149086070470000382C0140EB
:102A90000149086070470000382C01400149086076
:102AA00070470000A080254201490860704700007F
:102AB0008C85254200210B4B02681A601B1D426861
:102AC0001A601A1D116821F0F701D0E902231A4398
:102AD00003691A4343691A431143024A08321160D9
:102AE00070470000242C014010B50121C802FFF7F7
:102AF000F5FD00214FF40060FFF7F0FD10BD000070
:102B000001480068C0B27047102C01400146002007
:102B1000034A12680A400AB1012000E00020704711
:102B2000342C014001460020034A12680A400AB1D1
:102B3000012000E000207047342C0140024800686A
:102B400000F0030070470000002C014008B501466A
:102B5000002000900248084400900098006808BDDA
:102B6000142C014010B500BF3021EFF3118081F328
:102B70001188BFF34F8FBFF36F8F00BF044600F083
:102B800011FD204680F3118800BF10BD29B1064A0F
:102B900012680243044B1A6004E0034A126882433D
:102BA000014B1A60704700003C2C014000210A4A8A
:102BB000116847F6FF629143027D83681A434368B8
:102BC0001A43C3681A4303681A4303691A4311433B
:102BD000014A116070470000042C01400148006860
:102BE00070470000802C01400021094B02681A60E8
:102BF0001A1D11686FF30A01D0E901231A43C36853
:102C00001A4303691A431143014A121D11607047A8
:102C1000082C01400149086070470000002C014069
:102C200008B5012000909DF8000008BD70B504466D
:102C3000002520480068032802D12725284670BDBA
:102C40001C48006838B11B480068012803D01948A7
:102C5000006802282CD1B4F5805F02D127252846D0
:102C6000EDE7B4F5006F13D10120FFF77DFE0546B7
:102C7000F5B90020104908750860486088604FF475
:102C80000060C860002008610846FFF78FFF0FE072
:102C90000020FFF769FE054655B900200649087572
:102CA000086048608860C86008610846FFF77EFFDA
:102CB0002846C4E790000020789D0020F0B501462A
:102CC00000200022C04B1B7881F85630BF4B1B8878
:102CD000A1F85430BE4B1B681A0E93090B70C2F357
:102CE00083034B7002F003038B70B94B1B68C3F373
:102CF0000742CA70B64B1B88C3F307220A71B44B54
:102D00001A784A715B681A0E1301CB80B04B5B686E
:102D1000C3F30742CB8843EA1213CB8002F00F03C0
:102D20000B72AB4B9B88C3F30722D3094B72C2F3E0
:102D300080138B72C2F34013CB72C2F300130B7378
:102D400000234B73A04B1B681BB19F4B1B68012BCF
:102D50004FD193071B0D0B619D4B1A790B6943EA09
:102D600082030B619A4B9B681A0E0B6943EA92131C
:102D70000B61C2F3C2030B7502F007034B75944B52
:102D80009B68C3F3074253098B75C2F38203CB756B
:102D900093075B0F0B768E4B1B89C3F307220B7EC9
:102DA00043EAD2130B760B695B1C0024C1E9123491
:102DB0000B7ED1E912469B1C012505FA03F3DF17B0
:102DC000A4FB035C06FB03C304FB0733C1E91253F6
:102DD0000C7A0123A3400B650027D1E912560B6D35
:102DE000A5FB034C06FB03C305FB0733C1E91243F4
:102DF00036E0754B1B68022B32D1754B1A7993065E
:102E00009B0A0B61724B9B681A0E0B6943EA022303
:102E10000B616F4B9B68C3F307420B6913430B6154
:102E20006B4B1B89C3F307220B6900245B1C44EB2B
:102E300004074FF400760025A3FB064C07FB06C6EB
:102E400003FB05664FF480650027A4FB053C06FBE9
:102E500005C504FB0754C1E912344FF400730B6538
:102E6000C2F3801301F8193F93065B0E4B70584B69
:102E70001A7A4B7843EAD2134B7002F07F038B70BF
:102E8000534BDB681A0ED309CB70C2F341130B719D
:102E9000C2F382034B7193071B0F8B714C4BDB68A2
:102EA000C3F307428B7943EA92138B71C2F3401349
:102EB000CB7100230B7202F001034B72444B9B89D0
:102EC000C3F30722D3098B72C2F38013CB72C2F310
:102ED00040130B73C2F300134B73C2F381038B7364
:102EE00002F00303CB733A4B1A7B53080B74012394
:102EF0004B74384B1B681A0ECA741939354B1B6852
:102F0000C3F307421402CC85324B1B88C3F307225C
:102F1000CB8D1343CB852F4B1A7814060C635B685B
:102F20001A0E0B6B43EA02440C632A4B5B68C3F333
:102F300007420B6B43EA02240C63264B9B88C3F3C6
:102F400007220B6B13430B63224B1A7934235A5419
:102F5000204B9B681A0E35235A541E4B9B68C3F3B3
:102F6000074214068C631B4B1B89C3F307228B6B30
:102F700043EA02448C63174B1A7A8B6B43EA0224B0
:102F80008C63144BDB681A0E8B6B13438B63114BF2
:102F9000DB68C3F307423C235B5C43EA12143C2327
:102FA0005C5413071C0DCC870A4B9B89C3F3072283
:102FB000CB8F1343CB87074B1A7B540840235C54B9
:102FC000012441235C54F0BD9000002094000020B7
:102FD000F09C0020009D002008B500200090FFF725
:102FE0001FFE012809D1684600F0CAFB08B1FF2086
:102FF00008BD0098C0F34320FAE7FF20F8E710B5BA
:103000000424FFF7E9FF0446042C01D1002010BD81
:10301000FF2C01D10220FAE70120F8E71CB50020BF
:1030200001904FF44070FFF7DBFA31208DF800007B
:1030300006208DF8010000208DF8020001208DF897
:1030400003006846FFF790FA3B208DF8000005204A
:103050008DF801006846FFF787FA00F06DF9FFF779
:1030600043FD00F0BBF901909DF8040010B19DF8FC
:1030700004001CBD00F032F801909DF8040010B16E
:103080009DF80400F5E700201249087508604860C3
:103090008860C86008610846FFF788FD0E48FFF7A2
:1030A0000DFE01909DF8040040B90B48B0F85400A3
:1030B00002041046002100F047FB01909DF8040037
:1030C00020B94FF40060FFF7B1FD01909DF80400B6
:1030D000CFE70000789D0020209D002038B5002417
:1030E00001200090FFF72AFD10B92524204638BDA5
:1030F00044480068042828D0002043490860022082
:103100004860C02088600020C8604FF4806008617B
:103110000846FFF769FDFDF70BFF04460CB120469A
:10312000E5E70020FFF712FD384908600420FFF7AB
:103130000DFD364948600820FFF708FD33498860D7
:103140000C20FFF703FD3149C8602E48006858B1D4
:103150002C480068012807D02A480068062803D0B8
:1031600028480068022816D100202749086003205B
:103170004860402088600020C8604FF4806008618B
:103180000846FFF731FD69460320FDF713FF0446AB
:103190000CB12046ABE71B48006804282ED0BDF8D0
:1031A00000001B490860BDF80000000416490860D3
:1031B00009204860C02088600020C8604FF480600B
:1031C00008610846FFF710FDFDF7B2FE04460CB19A
:1031D00020468CE70020FFF7B9FC0E490860042068
:1031E000FFF7B4FC0B4948600820FFF7AFFC094922
:1031F00088600C20FFF7AAFC0649C860002420461E
:1032000075E7000090000020909D0020009D0020A8
:1032100094000020F09C002030B58FB004460D468D
:103220004FF0FA511E48FEF747F800211C48FEF700
:1032300077F81B48FEF780F84FF0006000901948BF
:10324000019002940020039001200490002005903A
:103250004FF4806006908000079080000890002066
:1032600009904FF440300A9004200B9003200C90FA
:103270004FF400000D9080100E9069460848FEF74C
:103280006DF9012210210648FEF74AF92021044871
:10329000FEF7FEF801210248FEF742F80FB030BDFC
:1032A00058640240802C014030B58FB004460D4672
:1032B0004FF0FA511E48FDF7FFFF00211C48FEF7B2
:1032C0002FF81B48FEF738F84FF0006000901948BF
:1032D000019002944020039001200490002005906A
:1032E0004FF48060069080000790800008900020D6
:1032F00009904FF440300A9004200B9003200C906A
:103300004FF400000D9080100E9069460848FEF7BB
:1033100025F9012210210648FEF702F92021044870
:10332000FEF7B6F801210248FDF7FAFF0FB030BDF5
:1033300058640240802C01401CB501210C20FFF78D
:103340008DF90C2208212348FEF71EFD0C220921CD
:103350002048FEF719FD0C220A211E48FEF714FD35
:103360000C220B211B48FEF70FFD0C2211461948B9
:10337000FEF70AFD0C2202211748FEF705FD4FF467
:103380007060009002208DF805008DF80400002088
:103390008DF8060001208DF8070069460D48FEF7FC
:1033A000ABFC0420009069460B48FEF7A5FC4FF4E7
:1033B0008050009000208DF8070069460548FEF710
:1033C0009BFC0121C802FFF779F901218805FFF76D
:1033D00045F91CBD00080240000C0240F8B5002071
:1033E0000090002500240026002776205F490875FC
:1033F0000020086048608860C86008610846FFF7E0
:10340000D5FB0320FFF706FC0120FFF747FB002058
:103410005749086048608860C8604FF48060086160
:103420000846FFF7E1FBFDF7D3FC00909DF8000094
:1034300010B19DF80000F8BD4FF4D5704C490860FC
:1034400008204860402088600020C8604FF48060F9
:1034500008610846FFF7C8FBFDF7FAFD00909DF8EC
:10346000000020B9012043490860870712E00020CE
:103470003F49086037204860402088600020C860CD
:103480004FF4806008610846FFF7AEFB3720FDF778
:10349000B5FC009000203649086037204860402085
:1034A00088600020C8604FF4806008610846FFF71C
:1034B0009BFB3720FDF7A2FC00909DF80000002840
:1034C00051D13BE000202A49086037204860402065
:1034D00088600020C8604FF4806008610846FFF7EC
:1034E00083FB3720FDF78AFC00909DF8000010B1A7
:1034F0009DF800009FE7204838431D4908602920B7
:103500004860402088600020C8604FF480600861F7
:103510000846FFF769FBFDF731FD00909DF80000BC
:1035200010B19DF8000086E70020FFF70FFB05466D
:10353000012080EAD57080F00106641C1EB94FF6A8
:10354000FF708442BED34FF6FF70844204D31B2029
:1035500000909DF800006EE705F08040050002D065
:103560000220044908609DF8000064E7789D00206F
:10357000909D0020900000200000108010B50748AA
:10358000006800F0C05040B10120054908604FF0CC
:10359000C25102485830FDF78FFE10BD0064024052
:1035A000A400002010B54FF48070FFF7BBFA50B1B3
:1035B0000020254908704FF48070FFF769FA012058
:1035C0002249086037E00220FFF7ACFA30B1022050
:1035D000FFF75EFA02201C4908702CE00820FFF774
:1035E000A1FA30B10820FFF753FA042016490870F9
:1035F00021E02020FFF796FA30B12020FFF748FAAB
:1036000006201149087016E01020FFF78BFA30B140
:103610001020FFF73DFA05200B4908700BE04FF42E
:103620000070FFF77FFA30B14FF40070FFF730FA07
:1036300007200549087000214CF23A30FFF7A6FA3E
:103640000148007810BD00009C000020A000002070
:103650002DE9F047814614461D46DDE9086800273C
:103660000020324908703249086001203149086061
:10367000002031490860012140F22A30FFF786FA24
:1036800008FB06F14846FFF7C7FD0120FFF70CFADB
:103690002A480068022808D10602020200232046B8
:1036A0002946FCF7E9FD04460D4625480660102032
:1036B00023494860402088600020C8604FF4806043
:1036C00008610846FFF790FA1020FDF797FB0746C0
:1036D00017B13846BDE8F0874FF0FF301949086050
:1036E00008FB06F04860902088600220C860002037
:1036F0000861012048610846FFF7DCF910480460C2
:1037000012200F494860402088600020C8604FF4B4
:10371000806008610846FFF767FA1220FDF76EFB2C
:1037200007460FB13846D5E73846D3E79C0000205E
:10373000A0000020980000202C2C014090000020C8
:10374000909D0020A49D002070B504460D460026E3
:103750000A4804600720094948604020886000202A
:10376000C8604FF4806008610846FFF73DFA072003
:10377000FDF744FB0646304670BD0000909D0020DA
:1037800070B50446002514B92625284670BD0F489B
:10379000008800040E4908600D20486040208860C1
:1037A0000020C8604FF4806008610846FFF71CFAEB
:1037B0000D20FDF723FB05460DB12846E6E7002066
:1037C000FFF7C4F920602846E0E7000094000020DD
:1037D000909D002010B5002400200A4908600C20AC
:1037E0004860402088600020C8604FF48060086115
:1037F0000846FFF7F9F90C20FDF700FB04462046C8
:1038000010BD0000909D002070B500256C1E00E0EA
:10381000641E1848006838B91748006820B917486E
:10382000007808B9002CF3D1002012490860441E2A
:1038300000E0641E1248006800F4005008B1002C3B
:10384000F7D110480068012805D1FFF7C3FF0546EE
:1038500000200C4908600CB905B9042540F2FF505E
:10386000FFF710F90548007810B10448007870BDE2
:103870002846FCE7A4000020A00000209C000020B7
:10388000342C01409800002070B500256C1E00E02B
:10389000641E1848006838B91748006820B91748EE
:1038A000007808B9002CF3D1002012490860441EAA
:1038B00000E0641E1248006800F4805008B1002C3B
:1038C000F7D110480068012805D1FFF783FF0546AE
:1038D00000200C4908600CB905B9042540F2FF50DE
:1038E000FFF7D0F80548007810B10448007870BDA3
:1038F0002846FCE7A4000020A00000209C00002037
:10390000342C0140980000202DE9F04781461546EF
:103910001E46DDE90878002400204949087049491D
:1039200008600120484908600020484908600121DA
:1039300040F21A30FFF72AF908FB07F14846FFF773
:10394000B3FC0120FFF7B0F841480068022808D115
:1039500007020202002328463146FCF78DFC05468B
:103960000E463C48076010203A4948604020886075
:103970000020C8604FF4806008610846FFF734F902
:103980001020FDF73BFA044614B12046BDE8F0874D
:103990003148008800042F490860372048604020E3
:1039A00088600020C8604FF4806008610846FFF717
:1039B0001BF93720FDF722FA04460CB12046E5E753
:1039C0002448C0F8008017202249486040208860C1
:1039D0000020C8604FF4806008610846FFF704F9D2
:1039E0001720FDF70BFA04460CB12046CEE7194824
:1039F0000560192017494860402088600020C86091
:103A00004FF4806008610846FFF7EEF81920FDF7D3
:103A1000F5F904460CB12046B8E74FF0FF300F49E6
:103A2000086008FB07F04860902088600020C860AC
:103A30000861012048610846FFF73CF82046A5E7E9
:103A40009C000020A0000020980000202C2C0140A9
:103A500090000020909D002094000020A49D002054
:103A600021B1028842F04002028004E002884FF651
:103A7000BF731A400280704700B587B00121084625
:103A8000FEF7ECFD052211462848FEF77DF90522D8
:103A900007212648FEF778F9052206212348FEF77C
:103AA00073F9E020059002208DF8180003208DF8AE
:103AB000190000208DF81B0005A91C48FEF71CF911
:103AC0001020059001208DF8180005A91748FEF771
:103AD00013F910211548FEF785F901210803FEF7B7
:103AE000EDFD0020ADF800004FF48270ADF802004B
:103AF0000020ADF804000220ADF806000120ADF86A
:103B000008004002ADF80A000020ADF80C00ADF846
:103B10000E000720ADF810006946054800F018F8BF
:103B200001210348FFF79CFF07B000BD00000240E1
:103B3000003001400246002013890B400BB10120E8
:103B400000E00020704701468889704781817047F6
:103B500010B50022028802F441520B884C8823439E
:103B60008C882343CC8823430C8923434C892343EB
:103B70008C892343CC8923431A430280838B4FF2E1
:103B8000FF74234083830B8A038210BD10B5044663
:103B9000214602A001F004F8002010BD3C3C2D534A
:103BA00050492D4552524F522D3E3E2053504920F0
:103BB00054494D454F555421206572726F72436FC1
:103BC0006465203D2025640A0000000070B50446AD
:103BD0004FF4805509E02800A5F101018DB204D110
:103BE0000120FFF7D3FFC0B270BD02211048FFF7DC
:103BF000A1FF0028EFD021460D48FFF7A7FF4FF4A3
:103C0000805509E02800A5F101018DB204D1022000
:103C1000FFF7BCFFC0B2E7E701210548FFF78AFFC5
:103C20000028EFD00248FFF78EFFC0B2DCE70000AB
:103C3000003001402DE9F8430746884616461C46E9
:103C40000025A946E9480090009008E00098411E30
:103C5000009120B90720FEF7FFF9BDE8F8834FF483
:103C60000031E348FEF742F90028EFD10121E04896
:103C7000FEF724F94FF48850009007E00098411EA9
:103C8000009118B90820FEF7E7F9E6E7D949D848C6
:103C9000FEF72CF90128F1D17806010E0022D44854
:103CA000FEF7C5F94FF48850009007E00098411ED8
:103CB000009118B90920FEF7CFF9CEE7CD49491C8C
:103CC000CB48FEF713F90128F0D11421C848FEF7BC
:103CD0009FF91821C648FEF79BF94FF488500090D1
:103CE00007E00098411E009118B90A20FEF7B4F9C8
:103CF000B3E7C0497F31BE48FEF7F8F80128F0D19C
:103D00004146BB48FEF79BF94FF48850009007E00E
:103D10000098411E009118B90B20FEF79DF99CE711
:103D2000B4497F31B248FEF7E1F80128F0D1012112
:103D3000AF48FEF7C3F84FF48850009007E00098B2
:103D4000411E009118B90C20FEF786F985E7A949B4
:103D5000A748FEF7CBF80128F1D17806010E012221
:103D6000A348FEF764F94FF48850009007E00098EC
:103D7000411E009118B90D20FEF76EF96DE79D49BF
:103D8000491C9B48FEF7B2F80128F0D1012E27D13B
:103D900000219748FEF744F814219548FEF738F9BA
:103DA00018219348FEF734F901219148FEF792F863
:103DB0004FF48850009007E00098411E009118B918
:103DC0000E20FEF749F948E78A493F318848FEF757
:103DD0008DF80128F0D18648FEF725F92070E1E042
:103DE000022E31D100218248FEF71AF8804800885F
:103DF00040F400607E49088014217D48FEF708F9F0
:103E000018217B48FEF704F94FF48850009007E032
:103E10000098411E009118B90F20FEF71DF91CE70C
:103E20007449C91C7248FEF761F80128F0D10121DC
:103E30006F48FEF74FF86E48FEF7F5F820706C48B3
:103E4000FEF7F1F86070ADE0032E42D1142168480E
:103E5000FEF7DEF818216648FEF7DAF84FF48850CE
:103E6000009007E00098411E009118B91020FEF75D
:103E7000F3F8F2E65F49C91C5D48FEF737F8012800
:103E8000F0D100215A48FDF7CBFF5948FEF7CBF897
:103E9000207001215648FEF71DF85548FEF7C3F87B
:103EA00060704FF48850009007E00098411E009128
:103EB00018B91120FEF7D0F8CFE64E493F314C48F3
:103EC000FEF714F80128F0D14948FEF7ACF8A070CD
:103ED00068E014214648FEF79BF818214448FEF795
:103EE00097F800255CE0F01EA84241D14FF48850BD
:103EF000009007E00098411E009118B91020FEF7CD
:103F0000ABF8AAE63B49C91C3948FDF7EFFF012889
:103F1000F0D100213648FDF783FF3548FEF783F8DE
:103F200029466D1C605401213148FDF7D3FF30480C
:103F3000FEF779F8014628466D1C21544FF488504D
:103F4000009007E00098411E009118B91120FEF77B
:103F500083F882E627493F312548FDF7C7FF01284E
:103F6000F0D12348FEF75FF829466D1C60541AE033
:103F70004FF48850009007E00098411E009118B956
:103F80001220FEF769F868E61A493F311848FDF734
:103F9000ADFF0128F0D11648FEF745F860556D1CBD
:103FA000B542A0D300BF1349C91C1148FDF744FF17
:103FB0000E48009007E00098411E009118B91320A8
:103FC000FEF74AF849E64FF400310948FDF78EFF45
:103FD0000028F0D101210648FDF722FF044800889F
:103FE00020F4006002490880484636E600EC1300E1
:103FF00000540040010000102DE9F84305468846B2
:1040000016461F464FF0000900244B4800900090D0
:1040100008E00098411E009120B90120FEF71CF82D
:10402000BDE8F8834FF400314448FDF75FFF0028F6
:10403000EFD101214148FDF741FF4FF48850009036
:1040400007E00098411E009118B90220FEF704F81D
:10405000E6E73B493948FDF749FF0128F1D16806F9
:10406000010E00223548FDF7E2FF4FF48850009022
:1040700007E00098411E009118B90320FDF7ECFFFE
:10408000CEE72F49491C2D48FDF730FF0128F0D11C
:1040900014212A48FDF7BCFF18212848FDF7B8FF76
:1040A0004FF48850009007E00098411E009118B925
:1040B0000420FDF7D1FFB3E721497F311F48FDF709
:1040C00015FF0128F0D141461C48FDF7B8FF002438
:1040D00017E04FF48850009007E00098411E0091CF
:1040E00018B90520FDF7B8FF9AE715497F31134845
:1040F000FDF7FCFE0128F0D1395D1048FDF79FFF68
:10410000641CB442E5D34FF48850009007E0009857
:10411000411E009118B90620FDF79EFF80E708496F
:10412000C91C0648FDF7E2FE0128F0D10121034831
:10413000FDF7D0FE484673E700EC13000054004042
:10414000010000102DE9F04706460F4690469946BB
:104150004FF0000A0024FDF747FE054600BF00248B
:104160004B46424639463046FFF764FD044684B16B
:104170007DB15046411C01F0FF0A042802DD2046B3
:10418000BDE8F0874FF47A7105FB01F001F0CCFE39
:10419000E5E72046F4E72DE9F04706460F4690464E
:1041A00099464FF0000A0024FDF71EFE054600BFA9
:1041B00000244B46424639463046FFF71DFF044671
:1041C00084B17DB15046411C01F0FF0A042802DD94
:1041D0002046BDE8F0874FF47A7105FB01F001F04D
:1041E000A3FEE5E72046F4E70CB50020019000901F
:1041F0003448006840F480303249086000BF3148DC
:10420000006800F4003000900198401C0190009874
:1042100018B90198B0F5A04FF1D12A48006800F410
:10422000003010B10120009001E0002000900098C3
:10423000012846D123484030006840F08050214991
:10424000403108602048006840F440401E49086042
:104250001C48083000681B4908310860084600689F
:1042600040F4004008600846006840F4A050086030
:104270001648091F0860081F006840F08070091F79
:10428000086000BF0F48006800F000700028F9D0F7
:1042900040F205700E4908600A480830006820F0B6
:1042A00003000849083108600846006840F0020031
:1042B000086000BF03480830006800F00C000828C0
:1042C000F8D10CBD0038024000700040085441078E
:1042D000003C024010B506F015F9012801D005F0A8
:1042E00077FD10BD10B51548006840F47000134903
:1042F00008601348006840F0010011490860002080
:104300000F49083108600E4800680E4908400C4902
:1043100008600D48091D0860081F006820F480200F
:10432000091F0860002006490C310860FFF75CFF98
:104330004FF0006001498039086010BD88ED00E051
:1043400000380240FFFFF6FE1030002421B1028841
:1043500042F08002028004E002884FF67F731A4028
:104360000280704721B1028842F00102028004E01D
:1043700002884FF6FE731A40028070470146486A71
:104380007047000070B5002400220023058C4FF612
:10439000FE7635400584028C8388048B4FF68F753A
:1043A0002C40B51E2C400D882C43751E2A408D894B
:1043B0002A434D882A43104DA84202D00F4DA842EF
:1043C00013D14FF6F7752A40CD892A434FF6FB7576
:1043D0002A408D882A434FF6FF652B404FF6FF5544
:1043E0002B400D8A2B434D8A2B43838004838D6899
:1043F0004563028470BD00000000014000040140DC
:104400000A460021018B4FF6F773194011430183CF
:104410007047000070B5002400220023058C4FF681
:10442000EF7635400584028C8388048B48F6FF754F
:104430002C404FF6FF452C400D884FF6FF7606EADC
:1044400005252C434FF6DF752A408D8906EA0515B0
:104450002A434D8806EA05152A43154DA84202D085
:10446000144DA8421DD14FF67F752A40CD894FF6D5
:10447000FF7606EA05152A434FF6BF752A408D8858
:1044800006EA05152A434FF6FF352B404FF2FF751C
:104490002B400D8A06EA85052B434D8A06EA8505E1
:1044A0002B43838004838D688563028470BD000084
:1044B00000000140000401400A460021018B4FF238
:1044C000FF7319404FF6FF7303EA02231943018378
:1044D0007047000070B5002400220023058C4FF6C1
:1044E000FF6635400584028C8388848B4FF68F7578
:1044F0002C404FF6FC752C400D882C434FF6FF5591
:104500002A408D894FF6FF7606EA05252A434D8815
:1045100006EA05252A43154DA84202D0144DA842AB
:104520001DD14FF2FF752A40CD894FF6FF7606EA7E
:1045300005252A434FF6FF352A408D8806EA0525D2
:104540002A434EF6FF752B404DF6FF752B400D8A22
:1045500006EA05152B434D8A06EA05152B43838091
:1045600084838D68C563028470BD00000000014033
:10457000000401400A460021818B4FF6F773194071
:10458000114381837047000070B50022002300248E
:10459000058C4EF6FF7635400584038C8488828B2B
:1045A00048F6FF752A404FF6FF452A400D884FF622
:1045B000FF7606EA05252A434DF6FF752B408D89C7
:1045C00006EA05352B434D8806EA05352B430A4D8F
:1045D000A84202D0094DA84208D14BF6FF752C40E5
:1045E0000D8A4FF6FF7606EA85152C438480828378
:1045F0008D680564038470BD000001400004014023
:104600000A460021818B4FF2FF7319404FF6FF736A
:1046100003EA022319438183704741637047816332
:104620007047C16370470164704700000022028830
:10463000184B98420ED0184B98420BD0B0F1804FD7
:1046400008D0164B984205D0154B984202D0154B16
:10465000984204D14FF68F731A404B881A43124B7D
:10466000984207D0114B984204D04FF6FF431A40AE
:104670000B891A4302804B68C3620B880385054B84
:10468000984202D0044B984201D18B7A03860123D1
:104690008382704700000140000401400004004094
:1046A00000080040000C00400010004000140040D2
:1046B00021B1828942F40052828104E082894DF660
:1046C000FF731A408281704700B587B00121084608
:1046D000FDF7C4FF01211020FDF7F0FF07220A219A
:1046E0001F48FDF751FB072209211D48FDF74CFB30
:1046F00000208DF81A0001208DF81B0002208DF893
:1047000019008DF818000002059005A91448FDF75E
:10471000F3FA02208DF818004002059005A9104810
:10472000FDF7EAFA4FF4E13001900020ADF80800FF
:10473000ADF80A00ADF80C00ADF810000C20ADF893
:104740000E0001A9074800F04BF80122402105485E
:1047500000F030F801210348FFF7AAFF07B000BDC1
:1047600000000240001001401FB54FF4E1300090FE
:104770000020ADF80400ADF80600ADF80800ADF873
:104780000C000C20ADF80A006946094800F028F832
:1047900000224021064800F00DF800228021044844
:1047A00000F008F801210248FFF782FF1FBD00005A
:1047B000001001401AB1838A0B43838202E0838A8E
:1047C0008B438382704702460020B1F5007F00D101
:1047D00000BF13880B400BB1012000E000207047A0
:1047E0002DE9FF4705460E460024A14600BFA0461E
:1047F000B08900B100BF2C8A24F44054F0880443EF
:104800002C82AC8941F20C608443B0883189084322
:10481000718908430443AC81AC8A24F44074B089A4
:104820000443AC826846FDF769FF2048854202D008
:104830001F48854202D1DDF80C9001E0DDF80890B8
:10484000A88900F4004040B109EBC90000EB091051
:1048500031684900B0FBF1F707E009EBC90000EB54
:10486000091031688900B0FBF1F76420B7FBF0F064
:1048700004012009642101FB1078A88900F400409C
:1048800040B1322000EBC800B0FBF1F000F00700AF
:10489000044308E0322000EB08106421B0FBF1F083
:1048A00000F00F0004432C81BDE8FF870010014099
:1048B0000014014001468888C0F30800704770B5B5
:1048C00006460C46154604E014F8011B304600F07D
:1048D00006F82800A5F101018DB2F5D170BD70B5C3
:1048E00004460D462946204600F008F800BF802106
:1048F0002046FFF768FF0028F9D070BDC1F3080219
:104900008280704700B58FB001218805FDF7A6FEB3
:104910002048FCF711FD00BF1E48FCF7C4FD00282D
:10492000FAD14FF0006000901B4801901B480290A4
:104930000020039020200490002005904FF4806018
:1049400006900020079008904FF4807009904FF473
:1049500040300A9000200B9003200C9000200D9016
:104960000E9069460B48FCF7F9FDFDF7EEFD0122BC
:1049700010210848FCF7D4FD09490648FCF79CFCC7
:1049800008490448FCF7B2FC01210248FCF7C8FCC6
:104990000FB000BD8864024004100140BC9D00209F
:1049A000000800200088002000B58FB00121880594
:1049B000FDF754FE1648FCF7BFFC00BF1448FCF797
:1049C00072FD0028FAD14FF000600090114801906C
:1049D0001148029040200390202004900020059070
:1049E0004FF4806006900020079008904FF480708C
:1049F000099040020A9000200B9003200C900020A8
:104A00000D900E9069460248FCF7A8FD0FB000BD5E
:104A1000B864024004100140DC9D0020A6B000BF35
:104A2000002400BF00BF00201A901B901C90302172
:104A30000EA8FBF76BFC00200C900D900A900B90D9
:104A4000182104A8FBF762FC00BF52E005212948A9
:104A500004F0CAFD00231A460EA92748006805F095
:104A600021FA01283FD19DED0E0A8DED200A9DED22
:104A70000F0A8DED210A9DED100A8DED220A9DEDA4
:104A8000110A8DED230A9DED120A8DED240A9DED8C
:104A9000130A8DED250A9DED140A8DED1A0A9DED80
:104AA000150A8DED1B0A9DED160A8DED1C0A9DED74
:104AB000170A8DED1E0A9DED180A8DED1D0A9DED5C
:104AC000190A8DED1F0A1AA80290DDE92401CDE92B
:104AD00000019DED1F1ADDED1E0A9DED1D0A20A8A7
:104AE0000FC800F041FE601CC0B20446032800D18C
:104AF0000024ABE7F0000020C40000201CB5012416
:104B00000E48022100230A02CDE900100CA10F4833
:104B100005F0C8FC0446012C02D10DA000F040F8BD
:104B200000220121084605F07FF912490860084675
:104B3000006810B110A000F033F81CBDE8000020A0
:104B400055706C6F61645F5461736B001D4A00089F
:104B50003C44454255473E4372656174652055703B
:104B60006C6F61645F5461736B20204F4B210D0AA1
:104B70000A000000EC0000203C44454255473E50EE
:104B80006172616D5F416464725F51756575652026
:104B900063726561746564210D0A0A0000BFFEE757
:104BA0000FB4054B10B503A9044A029800F0CAF8E7
:104BB00010BC5DF814FB00007D7500085C0100204E
:104BC00002E008C8121F08C1002AFAD170477047D6
:104BD000002001E001C1121F002AFBD17047000034
:104BE0002DE9FF5FDDE90220010DDDF838B0024359
:104BF00018D044F61050A1F2FF3141430D140F9824
:104C0000012820D0A5EB0B00401C5FEA000A4FF002
:104C10000004474EDFF81C91A046504616D5CAF155
:104C2000000728E00F98012443A2012808D00021A2
:104C300000980F9BC0E90021C0E90243BDE8FF9F37
:104C40006FEA0B01F4E7CBF10000DEE7074612E064
:104C5000F80707D02246334640464946FBF7CDFCCD
:104C6000804689462246334610461946FBF7C5FC66
:104C700004460E467F10002FEAD1DDE90201BAF1A9
:104C8000000F42464B4602DAFBF7B7FC01E0FBF7A8
:104C900026FD04460E460022284BFBF7A7FD03D84D
:104CA0004FF0FF30014607E00022254B20463146F9
:104CB000FBF745FBFBF782FD102409E0002C0ADB23
:104CC0000A220023FBF7D8FA019B30321A55641EE2
:104CD00050EA0102F2D1641C019AC4F11103144498
:104CE0000F9A012A03D0012208430DD10AE008439C
:104CF00004D000204FF0110B0F9080E7A3EB0B05C1
:104D00006D1E0DE05B4504DD4FF0000205F101056D
:104D100004E003DA4FF00002A5F10105002AECD00F
:104D200000980F99C0E90231C0E9004586E700000C
:104D3000000024400000F03F300000000000F0437D
:104D40000000E03F2DE9FF4F95B09B46894606469F
:104D500000250FE2252877D100242746F84A0121B3
:104D6000059400E0044316F8013F203B01FA03F0EC
:104D70001042F7D130782A2811D06FF02F03307805
:104D8000A0F13002092A16D8059A44F0020402EB79
:104D9000820203EB42021044761C0590EFE759F8BB
:104DA000042B0592002A03DA504244F40054059083
:104DB00044F00204761C30782E2816D116F8010F24
:104DC00044F004042A280DD06FF02F023078A0F1AF
:104DD0003003092B09D807EB870302EB4303C718FD
:104DE000761CF3E759F8047B761C30786C280FD0DA
:104DF00006DC4C2817D068280DD06A2814D104E0AE
:104E0000742810D07A280FD10DE044F400140AE081
:104E100044F4801401E044F440147278824202D1D8
:104E200004F58014761C761C307866280BD013DCD1
:104E3000582877D009DC002875D04528F6D04628B8
:104E4000F4D047281AD19DE118E0632835D06428B2
:104E500079D0652812D195E1702873D008DC6728D5
:104E6000F1D069286FD06E280DD06F2806D1B5E03B
:104E700073282CD0752875D0782874D05A46179985
:104E800090476D1C75E1C4F30250022809D0032835
:104E90000DD0D9F8001004280DD00D6009F10409D7
:104EA00067E1D9F80010EA17C1E90052F6E7D9F82E
:104EB00000100D80F2E70D70F0E719F8041B8DF873
:104EC000001000208DF80100EA46012003E059F8A7
:104ED00004AB4FF0FF3061074FF0000102D40DE04A
:104EE00008F101018846B9420FDA8045F8DB1AF86B
:104EF00008100029F4D108E008F101018846814238
:104F0000FADB1AF808100029F6D105985B46A0EBE9
:104F1000080721463846179A00F094FA284400EB17
:104F2000080507E04DE029E10DE01AF8010B5A46AB
:104F300017999047B8F10108F7D25B4621463846E9
:104F4000179A13E142E00A220092C4F302524FF092
:104F5000000A022A08D059F804CB032A4FEAEC7160
:104F60000AD00DE029E02AE009F1070121F007024B
:104F7000F2E802C1914609E00FFA8CFC4FEAEC71AD
:104F8000042A03D14FFA8CFC4FEAEC71002907DAAE
:104F90000A460021DCF1000C61EB02012D2202E047
:104FA000220504D52B228DF80420012203E0E2071C
:104FB00001D02022F7E7904659E00A2102E01022B2
:104FC0000DE010214FF0000A00910BE010224FF08D
:104FD000000A44F004040827009203E008224FF07E
:104FE000000A0092C4F30252022A05D059F804CBF9
:104FF0000021032A08D009E009F1070121F0070286
:10500000F2E802C1914605E01FFA8CFC042A01D1A6
:105010000CF0FF0C4FF00008220728D5702806D0AE
:10502000009B83F0100353EA0A0305D00EE04022F0
:105030008DF80420012208E05CEA010206D030224B
:105040008DF804208DF8050002229046009B83F025
:10505000080353EA0A030AD15CEA010201D162079C
:1050600005D530228DF804204FF001087F1E582806
:1050700004D034A003900EA802900DE036A0F9E70A
:1050800053466046009AFBF7F7F884460398825C23
:105090000298401E029002705CEA0100F0D1029872
:1050A00006A9081A00F1200A600702D524F480340A
:1050B00000E00127574502DDA7EB0A0000E00020D1
:1050C00000EB0A01009005984144401A0590E00366
:1050D00006D45B462146179A059800F0B3F90544BB
:1050E000002706E001A85A46C05D179990476D1C3D
:1050F0007F1C4745F6DBE0030CD55B462146179A3B
:10510000059800F09FF9054404E030205A461799AD
:1051100090476D1C0099481E00900029F5DC08E0BE
:10512000029802995A460078491C029117999047B3
:105130006D1CBAF10001AAF1010AF1DC65E1000081
:10514000092801003031323334353637383961625D
:105150006364656600000000303132333435363721
:1051600038394142434445460000000000F058F9F8
:105170000544761C307800287FF4ECAD19B0284641
:10518000BDE8F08F620700D4062709F1070222F07C
:10519000070CFCE80223E14603F000485FEA080C34
:1051A00002D00FF2702C0DE05FEA045C02D50FF222
:1051B000682C07E05FEAC47C02D00FF2602C01E0AB
:1051C000AFF2700C4FF0FF3823F00043CDF850C021
:1051D00065280CD006DC452809D046281DD0472874
:1051E0003DD13DE0662818D067287ED138E0002107
:1051F000112F01DB112000E0781CCDE9000106A988
:105200000EA8FFF7EDFCDDE90F010E9A03910021D6
:10521000009207F1010A04914DE04FF00040009721
:10522000CDE9011006A90EA8FFF7DAFCDDE90F02AF
:1052300003920E9B11990022DDF80CA000930492BA
:1052400011B9791C00EB010AB7EB0A0004D4C0F1D4
:10525000FF3007F1010A0490AAEB0700019044E037
:10526000012F00DA01270021112F01DD112000E0BC
:105270003846CDE9000106A90EA8FFF7B1FCDDE92B
:105280000F010E9A0391002104910092BA46210762
:105290000CD40399514500DA8A46BAF1010F05DDB5
:1052A000009AAAF10101515C302908D0B84202DA13
:1052B00010F1040F06DA0121CDE9011015E0AAF181
:1052C0000101E9E7002805DC049901440491AAEBF7
:1052D000000102E0411C514500DD8A460499401A54
:1052E000401C01904FF000400290200704D4019828
:1052F000504501DBCDF8048000208DF84F00029866
:105300000DF14F07B0F1004F25D02B200E900298E1
:105310004FF0020800280CDA404202902D200E9037
:1053200007E00A210298FBF7C4F83031029007F831
:10533000011DB8F10001A8F10108F2DC0298002873
:10534000EFD1791E0E980870307800F0200040F000
:10535000450007F8020D12A8C01B00F107081498B9
:10536000007800B1012000EB0A01019801EBE07127
:1053700005984144401A401E0590E00306D45B4660
:105380002146179A059800F05DF8054414980078B6
:1053900018B15A46179990476D1CE00324D55B4617
:1053A0002146179A059800F04DF805441CE0049832
:1053B000002807DBDDE90301884203DD0098405C3B
:1053C000179901E0179930205A469047049805F143
:1053D0000105401C04900198401E019004D12E202C
:1053E0005A46179990476D1CBAF10001AAF1010ABB
:1053F000DDDC05E017F8010B5A46179990476D1C44
:10540000B8F10001A8F10108F4DC5B462146179AC7
:105410000598ABE62D0000002B00000020000000E6
:105420002DE9F041044600251E461746880404D4A1
:1054300005E039462020B0476D1C641EF9D528468A
:10544000BDE8F0812DE9F041044600251E46904656
:10545000C80301D5302700E02027880404D505E0E3
:1054600041463846B0476D1C641EF9D52846BDE854
:10547000F081000070B505460E4601212948FBF772
:105480000DFA0323012208212648FBF763FA254879
:10549000FBF7BCFA00BF02212248FBF727FA0128DC
:1054A000F9D102211F48FBF7F6F91E48FBF71AFA5B
:1054B000044600EE104AF8EE400A9FED1B1A80EEFB
:1054C000810ADFED1A0A20EE200A85ED000A032387
:1054D000012209211348FBF73DFA1248FBF796FA1F
:1054E00000BF02210F48FBF701FA0128F9D1022180
:1054F0000C48FBF7D0F90B48FBF7F4F9044600EE33
:10550000104AF8EE400A9FED081A80EE810ADFED9E
:10551000070A20EE200A86ED000A00210148FBF769
:10552000BDF970BD00200140000080453333534079
:1055300010B5FBF76BFBFBF77DFB10BD2DE9FC47BE
:1055400004464FF0000800200090019000BF05E0E5
:10555000215C414401F0FF08411CC8B21F28F7DB61
:10556000E07F404505D045A0FFF71AFB0020BDE8CD
:10557000FC8720788A285CD160788A2859D1A07865
:105580001C2856D12079E17840EA01200FFA80F9F1
:10559000A079617940EA012005B2207AE17940EAF8
:1055A000012006B2A07A617A40EA012007B2A9F58B
:1055B0007A700FFA80F900EE106AF8EEC00A9FEDDB
:1055C000371A9FED370A10EE810ABDEEC00A10EEC1
:1055D000100A06B200EE107AF8EEC00A9FED2F1AFC
:1055E0009FED2F0A10EE810ABDEEC00A10EE100AE0
:1055F00007B200EE105AF8EEC00A9FED281A9FED90
:10560000280A10EE810ABDEEC00A10EE100A05B29B
:10561000ADF80090ADF80270ADF80460ADF806503A
:1056200000231A4669461F48006804F07FFD0120E8
:105630009DE720788A2805D060788B2802D0A07852
:105640001C2819D1E078AA280BD0AD2802D0AE28AA
:1056500010D102E000F086F90DE0204600F0DCF900
:1056600009E000F023F81048006880F040000E497F
:10567000086000E000BF00BF012078E73C444542DD
:1056800055473E6461746120636865636B20657291
:10569000726F722121210D0A0A000000EC51383E80
:1056A00000008743F80000201404024010B50D48A4
:1056B0000078C0430B4908700846007848B90A488A
:1056C000006804F0F3F902F0DBFE4020074908808F
:1056D00007E00548006804F00FF940200349891EDF
:1056E000088010BD2C000020BC0000201A040240DD
:1056F000F0B589B006460F461446202101A8FAF7F6
:1057000005FE1C2C01DD09B0F0BD002101AAE01C42
:10571000115488208DF804008DF805608DF806403E
:10572000002505E0795D01AAE81C1154681CC5B28A
:10573000A542F7DB00250AE001A9E01C085C495DF1
:105740000844C1B201AAE01C1154681CC5B2E01C97
:105750008542F1DB221D01A90248FFF7B0F800BF26
:10576000D1E70000001001400FB42DED040B2DE92E
:10577000F04F8DB0209C1C2106A8FAF7C7FD9DEDC7
:105780001A0ADFED770A20EE200ABDEEC00A10EEFD
:10579000100A05B29DED1B0ADFED710A20EE200A0A
:1057A000BDEEC00A10EE100A06B29DED1C0ADFED38
:1057B0006C0A20EE200ABDEEC00A10EE100A07B2F5
:1057C0009DED1D0ADFED660A20EE200ABDEEC00A3F
:1057D00010EE100A0FFA80F89DED1E0ADFED600A48
:1057E00020EE200ABDEEC00A10EE100A0FFA80F972
:1057F0009DED1F0ADFED5A0A20EE200ABDEEC00A19
:1058000010EE100A0FFA80FA94ED000ADFED540A48
:1058100020EE200ABDEEC00A10EE100A0FFA80FB3F
:1058200094ED010ADFED4E0A20EE200ABDEEC00A1B
:1058300010EE100A00B2059094ED020ADFED480A5E
:1058400020EE200ABDEEC00A10EE100A00B204904D
:105850009DED170ADFED420A20EE200ABDEEC00AD8
:1058600010EE100A00B203909DED160ADFED3C0A1F
:1058700020EE200ABDEEC00A10EE100A00B202901F
:105880009DED180AF2EE040A20EE200ABDEEC00AD1
:1058900010EE100A00B20190280A8DF81800E8B244
:1058A0008DF81900300A8DF81A00F0B28DF81B003F
:1058B000380A8DF81C00F8B28DF81D004FEA182048
:1058C0008DF81E0008F0FF008DF81F004FEA192028
:1058D0008DF8200009F0FF008DF821004FEA1A2012
:1058E0008DF822000AF0FF008DF823004FEA1B20FC
:1058F0008DF824000BF0FF008DF825000598000AB4
:105900008DF826000598C0B28DF827000498000A8B
:105910008DF828000498C0B28DF829000398000A79
:105920008DF82A000398C0B28DF82B000298000A67
:105930008DF82C000298C0B28DF82D000198000A55
:105940008DF82E000198C0B28DF82F001C2206A9F8
:10595000AF20FFF7CDFE0DB0BDE8F00F5DF824FBE2
:105960000000C842F0B58DB0002601271C2106A812
:10597000FAF7CCFC002418216846FAF7C7FCAD20E2
:105980008DF8180000231A4619462148006804F0D3
:1059900089FA012816D100250BE03046FBF745F8BF
:1059A000684600EB850080ED000A301DC6B2681C19
:1059B000C5B2062DF1DB00231A46194614480068CB
:1059C00004F0B4FB00201AE0694601EB800191ED80
:1059D000000ADFED100A20EE200ABCEEC00A10EE2D
:1059E000101A8CB2231239467A1CD7B206AA535425
:1059F00039467A1CD7B206AA5454411CC8B20628AC
:105A0000E2DB1C2206A9AC20FFF772FE0DB0F0BD50
:105A1000B40000200000C8422DE9F04387B00446DE
:105A20000026B046B1460427182101A8FAF76EFCFB
:105A300000201AE039467A1CD7B214F801803946A2
:105A40007A1CD7B214F8019049EA082100EE101A26
:105A5000B8EEC00ADFED1A0A80EE201A01A901EBA8
:105A6000800181ED001A411CC8B20628E2DB002348
:105A70001A4619461348006804F014FA01281BD18D
:105A8000002510E001A800EB8500D0ED000AB0EE83
:105A9000600A3046FBF718F8301DC6B2052003F047
:105AA00065FD681CC5B2062DECDB00231A461946BD
:105AB0000448006804F03AFB07B0BDE8F08300003A
:105AC0000000C842B40000208CB00146F0EE400A4D
:105AD000002009900A900B90069007900890039080
